{
  "_format": "hh3-artifact-1",
  "contractName": "PoliticalDonation",
  "sourceName": "contracts/contract.sol",
  "abi": [
    {
      "inputs": [],
      "stateMutability": "nonpayable",
      "type": "constructor"
    },
    {
      "inputs": [],
      "name": "ReentrancyGuardReentrantCall",
      "type": "error"
    },
    {
      "anonymous": false,
      "inputs": [
        {
          "indexed": true,
          "internalType": "address",
          "name": "adminAddress",
          "type": "address"
        },
        {
          "indexed": false,
          "internalType": "string",
          "name": "name",
          "type": "string"
        },
        {
          "indexed": false,
          "internalType": "string",
          "name": "region",
          "type": "string"
        }
      ],
      "name": "AdminAdded",
      "type": "event"
    },
    {
      "anonymous": false,
      "inputs": [
        {
          "indexed": true,
          "internalType": "address",
          "name": "adminAddress",
          "type": "address"
        },
        {
          "indexed": false,
          "internalType": "string",
          "name": "name",
          "type": "string"
        },
        {
          "indexed": false,
          "internalType": "string",
          "name": "region",
          "type": "string"
        }
      ],
      "name": "AdminRemoved",
      "type": "event"
    },
    {
      "anonymous": false,
      "inputs": [
        {
          "indexed": true,
          "internalType": "address",
          "name": "donoraddress",
          "type": "address"
        }
      ],
      "name": "DonorAdded",
      "type": "event"
    },
    {
      "anonymous": false,
      "inputs": [
        {
          "indexed": true,
          "internalType": "address",
          "name": "donorAddress",
          "type": "address"
        }
      ],
      "name": "DonorRemoved",
      "type": "event"
    },
    {
      "anonymous": false,
      "inputs": [
        {
          "indexed": false,
          "internalType": "uint256",
          "name": "from",
          "type": "uint256"
        },
        {
          "indexed": false,
          "internalType": "uint256",
          "name": "to",
          "type": "uint256"
        },
        {
          "indexed": false,
          "internalType": "uint256",
          "name": "cap",
          "type": "uint256"
        },
        {
          "indexed": false,
          "internalType": "string",
          "name": "region",
          "type": "string"
        },
        {
          "indexed": false,
          "internalType": "string",
          "name": "name",
          "type": "string"
        }
      ],
      "name": "ElectionDeclared",
      "type": "event"
    },
    {
      "anonymous": false,
      "inputs": [
        {
          "indexed": true,
          "internalType": "address",
          "name": "partyAddress",
          "type": "address"
        },
        {
          "indexed": false,
          "internalType": "string",
          "name": "name",
          "type": "string"
        }
      ],
      "name": "PartyAdded",
      "type": "event"
    },
    {
      "anonymous": false,
      "inputs": [
        {
          "indexed": true,
          "internalType": "address",
          "name": "partyAddress",
          "type": "address"
        },
        {
          "indexed": false,
          "internalType": "string",
          "name": "name",
          "type": "string"
        }
      ],
      "name": "PartyRemoved",
      "type": "event"
    },
    {
      "anonymous": false,
      "inputs": [
        {
          "indexed": false,
          "internalType": "string",
          "name": "by",
          "type": "string"
        },
        {
          "indexed": false,
          "internalType": "uint256",
          "name": "amt",
          "type": "uint256"
        },
        {
          "indexed": false,
          "internalType": "uint256",
          "name": "elecId",
          "type": "uint256"
        }
      ],
      "name": "Withdrawal",
      "type": "event"
    },
    {
      "anonymous": false,
      "inputs": [
        {
          "indexed": false,
          "internalType": "string",
          "name": "from",
          "type": "string"
        },
        {
          "indexed": false,
          "internalType": "string",
          "name": "to",
          "type": "string"
        },
        {
          "indexed": false,
          "internalType": "uint256",
          "name": "time",
          "type": "uint256"
        },
        {
          "indexed": false,
          "internalType": "uint256",
          "name": "amt",
          "type": "uint256"
        }
      ],
      "name": "donation",
      "type": "event"
    },
    {
      "inputs": [
        {
          "internalType": "address",
          "name": "",
          "type": "address"
        }
      ],
      "name": "Admins",
      "outputs": [
        {
          "internalType": "string",
          "name": "name",
          "type": "string"
        },
        {
          "internalType": "address",
          "name": "acc",
          "type": "address"
        },
        {
          "internalType": "string",
          "name": "region",
          "type": "string"
        },
        {
          "internalType": "bool",
          "name": "isActive",
          "type": "bool"
        }
      ],
      "stateMutability": "view",
      "type": "function"
    },
    {
      "inputs": [
        {
          "internalType": "address",
          "name": "",
          "type": "address"
        }
      ],
      "name": "Donors",
      "outputs": [
        {
          "internalType": "string",
          "name": "name",
          "type": "string"
        },
        {
          "internalType": "string",
          "name": "region",
          "type": "string"
        },
        {
          "internalType": "address",
          "name": "acc",
          "type": "address"
        },
        {
          "internalType": "enum PoliticalDonation.DonorType",
          "name": "d",
          "type": "uint8"
        }
      ],
      "stateMutability": "view",
      "type": "function"
    },
    {
      "inputs": [
        {
          "internalType": "uint256",
          "name": "",
          "type": "uint256"
        }
      ],
      "name": "Elect",
      "outputs": [
        {
          "internalType": "uint256",
          "name": "st",
          "type": "uint256"
        },
        {
          "internalType": "uint256",
          "name": "end",
          "type": "uint256"
        },
        {
          "internalType": "uint256",
          "name": "maxLimit",
          "type": "uint256"
        },
        {
          "internalType": "string",
          "name": "region",
          "type": "string"
        },
        {
          "internalType": "string",
          "name": "name",
          "type": "string"
        }
      ],
      "stateMutability": "view",
      "type": "function"
    },
    {
      "inputs": [
        {
          "internalType": "address",
          "name": "",
          "type": "address"
        }
      ],
      "name": "Parties",
      "outputs": [
        {
          "internalType": "string",
          "name": "name",
          "type": "string"
        },
        {
          "internalType": "string",
          "name": "logo",
          "type": "string"
        },
        {
          "internalType": "string",
          "name": "description",
          "type": "string"
        },
        {
          "internalType": "address",
          "name": "acc",
          "type": "address"
        },
        {
          "internalType": "uint256",
          "name": "a",
          "type": "uint256"
        },
        {
          "internalType": "enum PoliticalDonation.PartyType",
          "name": "typeP",
          "type": "uint8"
        },
        {
          "internalType": "string",
          "name": "region",
          "type": "string"
        },
        {
          "internalType": "string",
          "name": "constituency",
          "type": "string"
        }
      ],
      "stateMutability": "view",
      "type": "function"
    },
    {
      "inputs": [
        {
          "internalType": "uint256",
          "name": "",
          "type": "uint256"
        },
        {
          "internalType": "address",
          "name": "",
          "type": "address"
        }
      ],
      "name": "WithdrawnYet",
      "outputs": [
        {
          "internalType": "bool",
          "name": "",
          "type": "bool"
        }
      ],
      "stateMutability": "view",
      "type": "function"
    },
    {
      "inputs": [
        {
          "internalType": "string",
          "name": "name",
          "type": "string"
        },
        {
          "internalType": "address",
          "name": "add",
          "type": "address"
        },
        {
          "internalType": "enum PoliticalDonation.PartyType",
          "name": "t",
          "type": "uint8"
        },
        {
          "internalType": "string",
          "name": "location",
          "type": "string"
        }
      ],
      "name": "addNewParty",
      "outputs": [],
      "stateMutability": "payable",
      "type": "function"
    },
    {
      "inputs": [
        {
          "internalType": "string",
          "name": "name_",
          "type": "string"
        },
        {
          "internalType": "enum PoliticalDonation.DonorType",
          "name": "d",
          "type": "uint8"
        },
        {
          "internalType": "string",
          "name": "region",
          "type": "string"
        }
      ],
      "name": "addNewUser",
      "outputs": [],
      "stateMutability": "payable",
      "type": "function"
    },
    {
      "inputs": [
        {
          "internalType": "uint256",
          "name": "",
          "type": "uint256"
        },
        {
          "internalType": "address",
          "name": "",
          "type": "address"
        }
      ],
      "name": "amountWithdrawn",
      "outputs": [
        {
          "internalType": "uint256",
          "name": "",
          "type": "uint256"
        }
      ],
      "stateMutability": "view",
      "type": "function"
    },
    {
      "inputs": [
        {
          "internalType": "address",
          "name": "newSuperAdmin",
          "type": "address"
        }
      ],
      "name": "changeSuperAdmin",
      "outputs": [],
      "stateMutability": "nonpayable",
      "type": "function"
    },
    {
      "inputs": [
        {
          "internalType": "string",
          "name": "name_",
          "type": "string"
        },
        {
          "internalType": "address",
          "name": "add",
          "type": "address"
        },
        {
          "internalType": "string",
          "name": "region_",
          "type": "string"
        }
      ],
      "name": "createAdmin",
      "outputs": [],
      "stateMutability": "nonpayable",
      "type": "function"
    },
    {
      "inputs": [
        {
          "internalType": "uint256",
          "name": "startTime",
          "type": "uint256"
        },
        {
          "internalType": "uint256",
          "name": "endTime",
          "type": "uint256"
        },
        {
          "internalType": "uint256",
          "name": "cap",
          "type": "uint256"
        },
        {
          "internalType": "string",
          "name": "region",
          "type": "string"
        },
        {
          "internalType": "string",
          "name": "name",
          "type": "string"
        }
      ],
      "name": "createElection",
      "outputs": [],
      "stateMutability": "nonpayable",
      "type": "function"
    },
    {
      "inputs": [],
      "name": "currTime",
      "outputs": [
        {
          "internalType": "uint256",
          "name": "time",
          "type": "uint256"
        }
      ],
      "stateMutability": "view",
      "type": "function"
    },
    {
      "inputs": [
        {
          "internalType": "address",
          "name": "toParty",
          "type": "address"
        }
      ],
      "name": "donate",
      "outputs": [],
      "stateMutability": "payable",
      "type": "function"
    },
    {
      "inputs": [],
      "name": "donorMerkleRoot",
      "outputs": [
        {
          "internalType": "bytes32",
          "name": "",
          "type": "bytes32"
        }
      ],
      "stateMutability": "view",
      "type": "function"
    },
    {
      "inputs": [
        {
          "internalType": "uint256",
          "name": "id",
          "type": "uint256"
        }
      ],
      "name": "electionActive",
      "outputs": [
        {
          "internalType": "bool",
          "name": "",
          "type": "bool"
        }
      ],
      "stateMutability": "view",
      "type": "function"
    },
    {
      "inputs": [
        {
          "internalType": "uint256",
          "name": "ts",
          "type": "uint256"
        }
      ],
      "name": "getTime",
      "outputs": [
        {
          "internalType": "uint256",
          "name": "hrs",
          "type": "uint256"
        },
        {
          "internalType": "uint256",
          "name": "mins",
          "type": "uint256"
        },
        {
          "internalType": "uint256",
          "name": "sec",
          "type": "uint256"
        }
      ],
      "stateMutability": "pure",
      "type": "function"
    },
    {
      "inputs": [
        {
          "internalType": "address",
          "name": "",
          "type": "address"
        }
      ],
      "name": "isAdmin",
      "outputs": [
        {
          "internalType": "bool",
          "name": "",
          "type": "bool"
        }
      ],
      "stateMutability": "view",
      "type": "function"
    },
    {
      "inputs": [
        {
          "internalType": "address",
          "name": "",
          "type": "address"
        }
      ],
      "name": "regionAdmins",
      "outputs": [
        {
          "internalType": "string",
          "name": "name",
          "type": "string"
        },
        {
          "internalType": "address",
          "name": "acc",
          "type": "address"
        },
        {
          "internalType": "string",
          "name": "region",
          "type": "string"
        },
        {
          "internalType": "bool",
          "name": "isActive",
          "type": "bool"
        }
      ],
      "stateMutability": "view",
      "type": "function"
    },
    {
      "inputs": [
        {
          "internalType": "address",
          "name": "adminAddr",
          "type": "address"
        }
      ],
      "name": "removeAdmin",
      "outputs": [],
      "stateMutability": "nonpayable",
      "type": "function"
    },
    {
      "inputs": [],
      "name": "superAdmin",
      "outputs": [
        {
          "internalType": "address",
          "name": "",
          "type": "address"
        }
      ],
      "stateMutability": "view",
      "type": "function"
    },
    {
      "inputs": [],
      "name": "totalAdmins",
      "outputs": [
        {
          "internalType": "uint256",
          "name": "",
          "type": "uint256"
        }
      ],
      "stateMutability": "view",
      "type": "function"
    },
    {
      "inputs": [],
      "name": "totalDonors",
      "outputs": [
        {
          "internalType": "uint256",
          "name": "",
          "type": "uint256"
        }
      ],
      "stateMutability": "view",
      "type": "function"
    },
    {
      "inputs": [],
      "name": "totalParties",
      "outputs": [
        {
          "internalType": "uint256",
          "name": "",
          "type": "uint256"
        }
      ],
      "stateMutability": "view",
      "type": "function"
    },
    {
      "inputs": [
        {
          "internalType": "uint256",
          "name": "amt",
          "type": "uint256"
        },
        {
          "internalType": "uint256",
          "name": "electionId",
          "type": "uint256"
        }
      ],
      "name": "withdraw",
      "outputs": [],
      "stateMutability": "nonpayable",
      "type": "function"
    }
  ],
  "bytecode": "0x6080604052348015600e575f5ffd5b5060015f81815580825560028190556003819055600680546001600160a01b031916339081179091558152600960205260409020805460ff191690911790556124a68061005a5f395ff3fe608060405260043610610146575f3560e01c8063441a3e70116100b35780639740f7741161006d5780639740f7741461040d578063ac1fc4d21461042c578063b12b761e1461045c578063b16f4f241461047b578063eb68048b1461048e578063fa240236146104a3575f5ffd5b8063441a3e701461031857806356cabd0c1461033757806365783f03146103705780636fd094f41461038f57806373627826146103be578063840cf493146103f8575f5ffd5b80631a6af7b7116101045780631a6af7b71461023e57806324d7806c1461025057806325c302e41461028e57806329575f6a146102a35780633add0b1f146102da57806341858c4b146102f9575f5ffd5b8062362a951461014a57806301d3be051461015f5780630ec6d58a146101875780631183b997146101b65780631785f53c146101ec578063192d1d5e1461020b575b5f5ffd5b61015d610158366004611c65565b6104b6565b005b34801561016a575f5ffd5b5061017460015481565b6040519081526020015b60405180910390f35b348015610192575f5ffd5b506101a66101a1366004611c65565b61064a565b60405161017e9493929190611cb3565b3480156101c1575f5ffd5b506101746101d0366004611cfa565b600e60209081525f928352604080842090915290825290205481565b3480156101f7575f5ffd5b5061015d610206366004611c65565b61078f565b348015610216575f5ffd5b5061022a610225366004611c65565b610868565b60405161017e989796959493929190611d38565b348015610249575f5ffd5b5042610174565b34801561025b575f5ffd5b5061027e61026a366004611c65565b60096020525f908152604090205460ff1681565b604051901515815260200161017e565b348015610299575f5ffd5b5061017460025481565b3480156102ae575f5ffd5b506006546102c2906001600160a01b031681565b6040516001600160a01b03909116815260200161017e565b3480156102e5575f5ffd5b506101a66102f4366004611c65565b610b58565b348015610304575f5ffd5b5061015d610313366004611c65565b610b72565b348015610323575f5ffd5b5061015d610332366004611dd5565b610da8565b348015610342575f5ffd5b5061027e610351366004611cfa565b600a60209081525f928352604080842090915290825290205460ff1681565b34801561037b575f5ffd5b5061015d61038a366004611e94565b61109d565b34801561039a575f5ffd5b506103ae6103a9366004611c65565b61136b565b60405161017e9493929190611f14565b3480156103c9575f5ffd5b506103dd6103d8366004611f69565b6114ae565b6040805193845260208401929092529082015260600161017e565b348015610403575f5ffd5b5061017460045481565b348015610418575f5ffd5b5061015d610427366004611f80565b6114f6565b348015610437575f5ffd5b5061044b610446366004611f69565b611733565b60405161017e959493929190611ff4565b348015610467575f5ffd5b5061027e610476366004611f69565b61186f565b61015d610489366004612036565b6118a2565b348015610499575f5ffd5b5061017460055481565b61015d6104b136600461207e565b611992565b6001600160a01b0381165f90815260076020526040902080546104d890612108565b90505f036105245760405162461bcd60e51b815260206004820152601460248201527314185c9d1e481b9bdd081c9959da5cdd195c995960621b60448201526064015b60405180910390fd5b335f908152600860205260409020805461053d90612108565b90505f036105845760405162461bcd60e51b8152602060048201526014602482015273111bdb9bdc881b9bdd081c9959da5cdd195c995960621b604482015260640161051b565b5f34116105c35760405162461bcd60e51b815260206004820152600d60248201526c496e76616c69642056616c756560981b604482015260640161051b565b335f9081526008602090815260408083206001600160a01b038516845260079092528220600481018054929391923492906105ff908490612154565b909155505060405142907f4637f9774c9f7e684e73750df181bdc70acb3cbad281e2e0af48d105f7612de99061063c9085908590859034906121e6565b60405180910390a150505050565b600c6020525f908152604090208054819061066490612108565b80601f016020809104026020016040519081016040528092919081815260200182805461069090612108565b80156106db5780601f106106b2576101008083540402835291602001916106db565b820191905f5260205f20905b8154815290600101906020018083116106be57829003601f168201915b505050600184015460028501805494956001600160a01b0390921694919350915061070590612108565b80601f016020809104026020016040519081016040528092919081815260200182805461073190612108565b801561077c5780601f106107535761010080835404028352916020019161077c565b820191905f5260205f20905b81548152906001019060200180831161075f57829003601f168201915b5050506003909301549192505060ff1684565b6006546001600160a01b031633146107da5760405162461bcd60e51b815260206004820152600e60248201526d139bdd08185d5d1a1bdc9a5e995960921b604482015260640161051b565b6001600160a01b0381165f908152600960209081526040808320805460ff19169055600c909152812060058054919260019261081790849061221e565b90915550506040516001600160a01b038316907fb1885ff5a74b6293510fe82bd86831f75acae8ab05d110f7b02a111b94908d409061085c9084906002820190612231565b60405180910390a25050565b60076020525f908152604090208054819061088290612108565b80601f01602080910402602001604051908101604052809291908181526020018280546108ae90612108565b80156108f95780601f106108d0576101008083540402835291602001916108f9565b820191905f5260205f20905b8154815290600101906020018083116108dc57829003601f168201915b50505050509080600101805461090e90612108565b80601f016020809104026020016040519081016040528092919081815260200182805461093a90612108565b80156109855780601f1061095c57610100808354040283529160200191610985565b820191905f5260205f20905b81548152906001019060200180831161096857829003601f168201915b50505050509080600201805461099a90612108565b80601f01602080910402602001604051908101604052809291908181526020018280546109c690612108565b8015610a115780601f106109e857610100808354040283529160200191610a11565b820191905f5260205f20905b8154815290600101906020018083116109f457829003601f168201915b50505060038401546004850154600586015460068701805496976001600160a01b039094169692955060ff909116935090610a4b90612108565b80601f0160208091040260200160405190810160405280929190818152602001828054610a7790612108565b8015610ac25780601f10610a9957610100808354040283529160200191610ac2565b820191905f5260205f20905b815481529060010190602001808311610aa557829003601f168201915b505050505090806007018054610ad790612108565b80601f0160208091040260200160405190810160405280929190818152602001828054610b0390612108565b8015610b4e5780601f10610b2557610100808354040283529160200191610b4e565b820191905f5260205f20905b815481529060010190602001808311610b3157829003601f168201915b5050505050905088565b600d6020525f908152604090208054819061066490612108565b6006546001600160a01b03163314610bbe5760405162461bcd60e51b815260206004820152600f60248201526e27b7363c9029bab832b920b236b4b760891b604482015260640161051b565b6001600160a01b038116610c065760405162461bcd60e51b815260206004820152600f60248201526e496e76616c6964206164647265737360881b604482015260640161051b565b600680546001600160a01b039081165f908152600960209081526040808320805460ff1990811690915585546001600160a01b0319169487169485179095559282528282208054909416600117909355600c90925290208054610c6890612108565b90505f03610d29576001600160a01b0381165f908152600c60209081526040918290208251808401909352600a83526929bab832b920b236b4b760b11b91830191909152908190610cb990826122aa565b506001810180546001600160a01b0319166001600160a01b03841617905560408051808201909152600681526511db1bd8985b60d21b60208201526002820190610d0390826122aa565b5060038101805460ff1916600117905560058054905f610d2283612365565b9190505550505b806001600160a01b03167f50d126b33ade60136ea696e3c200c0613727d9ef65840a335d00b6600eeb6a5d604051610d9d906040808252600a908201526929bab832b920b236b4b760b11b60608201526080602082018190526006908201526511db1bd8985b60d21b60a082015260c00190565b60405180910390a250565b610db0611c22565b335f9081526007602052604090208054610dc990612108565b90505f03610e095760405162461bcd60e51b815260206004820152600d60248201526c496e76616c696420506172747960981b604482015260640161051b565b335f908152600760209081526040808320848452600b9092529091206004820154841115610e705760405162461bcd60e51b8152602060048201526014602482015273496e73756666696369656e742062616c616e636560601b604482015260640161051b565b8381600201541015610eda5760405162461bcd60e51b815260206004820152602d60248201527f416d6f756e74206578636565647320656c656374696f6e206c696d697420706560448201526c39103a3930b739b0b1ba34b7b760991b606482015260840161051b565b83471015610f2a5760405162461bcd60e51b815260206004820152601e60248201527f4e6f7420656e6f7567682062616c616e636520696e20636f6e74726163740000604482015260640161051b565b805442118015610f3d5750806001015442105b610f805760405162461bcd60e51b81526020600482015260146024820152734e6f7420696e20656c656374696f6e2074696d6560601b604482015260640161051b565b83826004015f828254610f93919061221e565b90915550505f838152600e6020908152604080832033845290915281208054869290610fc0908490612154565b90915550506040515f90339086908381818185875af1925050503d805f8114611004576040519150601f19603f3d011682016040523d82523d5f602084013e611009565b606091505b50509050806110515760405162461bcd60e51b81526020600482015260146024820152732330b4b632b2103a379039b2b7321022ba3432b960611b604482015260640161051b565b6040517fdf7cfcd921e73bb8dcd6e71f455445ef0a66df89cad00892b8f67530f7be9180906110859085908890889061237d565b60405180910390a150505061109960015f55565b5050565b335f9081526009602052604090205460ff166110f45760405162461bcd60e51b8152602060048201526016602482015275165bdd48185c99481b9bdd08185d5d1a1bdc9a5e995960521b604482015260640161051b565b335f908152600c60205260408120600201805461111090612108565b9050116111525760405162461bcd60e51b815260206004820152601060248201526f149959da5bdb881b9bdd08199bdd5b9960821b604482015260640161051b565b8180519060200120600c5f336001600160a01b03166001600160a01b031681526020019081526020015f2060020160405161118d91906123a1565b6040518091039020146111da5760405162461bcd60e51b81526020600482015260156024820152742737ba1034b71030b236b4b713b9903932b3b4b7b760591b604482015260640161051b565b4285116112295760405162461bcd60e51b815260206004820152601d60248201527f537461727454696d652073686f756c6420626520696e20667574757265000000604482015260640161051b565b8484116112825760405162461bcd60e51b815260206004820152602160248201527f456e642074696d65206d7573742062652061667465722073746172742074696d6044820152606560f81b606482015260840161051b565b5f83116112d15760405162461bcd60e51b815260206004820152601a60248201527f436170206d7573742062652067726561746572207468616e2030000000000000604482015260640161051b565b600380545f908152600b60205260409020868155600181018690556002810185905590810161130084826122aa565b506004810161130f83826122aa565b5060038054905f61131f83612365565b91905055507f9f1406b0cf288ea89f730d8fbc5705b633fed18e57f160c6448c49f07dd90f3d868686868660405161135b959493929190611ff4565b60405180910390a1505050505050565b60086020525f908152604090208054819061138590612108565b80601f01602080910402602001604051908101604052809291908181526020018280546113b190612108565b80156113fc5780601f106113d3576101008083540402835291602001916113fc565b820191905f5260205f20905b8154815290600101906020018083116113df57829003601f168201915b50505050509080600101805461141190612108565b80601f016020809104026020016040519081016040528092919081815260200182805461143d90612108565b80156114885780601f1061145f57610100808354040283529160200191611488565b820191905f5260205f20905b81548152906001019060200180831161146b57829003601f168201915b505050600290930154919250506001600160a01b0381169060ff600160a01b9091041684565b5f80806114bc603c85612426565b9050603c6114ca8186612439565b6114d49190612426565b915060186114e4610e1086612439565b6114ee9190612426565b949193509150565b6006546001600160a01b0316331461155b5760405162461bcd60e51b815260206004820152602260248201527f4f6e6c792073757065722061646d696e2063616e206372656174652061646d696044820152616e7360f01b606482015260840161051b565b6001600160a01b0382165f908152600c60205260409020805461157d90612108565b1590506115c35760405162461bcd60e51b815260206004820152601460248201527341646d696e20616c72656164792065786973747360601b604482015260640161051b565b6001600160a01b03821661160b5760405162461bcd60e51b815260206004820152600f60248201526e496e76616c6964206164647265737360881b604482015260640161051b565b5f8151116116545760405162461bcd60e51b8152602060048201526016602482015275526567696f6e2063616e6e6f7420626520656d70747960501b604482015260640161051b565b6001600160a01b0382165f908152600c602052604090208061167685826122aa565b506001810180546001600160a01b0319166001600160a01b038516179055600281016116a283826122aa565b50600381018054600160ff1991821681179092556001600160a01b0385165f9081526009602052604081208054909216909217905560058054916116e583612365565b9190505550826001600160a01b03167f50d126b33ade60136ea696e3c200c0613727d9ef65840a335d00b6600eeb6a5d858460405161172592919061244c565b60405180910390a250505050565b600b6020525f908152604090208054600182015460028301546003840180549394929391929161176290612108565b80601f016020809104026020016040519081016040528092919081815260200182805461178e90612108565b80156117d95780601f106117b0576101008083540402835291602001916117d9565b820191905f5260205f20905b8154815290600101906020018083116117bc57829003601f168201915b5050505050908060040180546117ee90612108565b80601f016020809104026020016040519081016040528092919081815260200182805461181a90612108565b80156118655780601f1061183c57610100808354040283529160200191611865565b820191905f5260205f20905b81548152906001019060200180831161184857829003601f168201915b5050505050905085565b5f818152600b6020526040812054421080159061189c57505f828152600b60205260409020600101544211155b92915050565b335f90815260086020526040902080546118bb90612108565b1590506118f85760405162461bcd60e51b815260206004820152600b60248201526a557365722045786973747360a81b604482015260640161051b565b335f90815260086020526040902060028101805484919060ff60a01b1916600160a01b83600181111561192d5761192d611d24565b02179055506001810161194083826122aa565b508061194c85826122aa565b506002810180546001600160a01b031916339081179091556040517f650e3d334de4d5e09c7c65afd02455857fea2913f96d605a7460fe08217115c7905f90a250505050565b6001600160a01b0383165f90815260076020526040902080546119b490612108565b1590506119f25760405162461bcd60e51b815260206004820152600c60248201526b50617274792065786973747360a01b604482015260640161051b565b5f826002811115611a0557611a05611d24565b03611aee576006546001600160a01b0316331480611a7f5750335f908152600d602052604090206003015460ff168015611a7f57508080519060200120600d5f336001600160a01b03166001600160a01b031681526020019081526020015f20600201604051611a7591906123a1565b6040518091039020145b611ae95760405162461bcd60e51b815260206004820152603560248201527f4f6e6c7920737570657241646d696e206f7220726567696f6e41646d696e2063604482015274616e2061646420726567696f6e616c20706172747960581b606482015260840161051b565b611b44565b335f9081526009602052604090205460ff16611b445760405162461bcd60e51b8152602060048201526015602482015274165bdd48185c995b89dd08185d5d1a1bdc9a5e9959605a1b604482015260640161051b565b6001600160a01b0383165f90815260076020526040902080611b6686826122aa565b506003810180546001600160a01b0319166001600160a01b0386161790555f600482015560058101805484919060ff19166001836002811115611bab57611bab611d24565b02179055505f836002811115611bc357611bc3611d24565b03611bdc5760068101611bd683826122aa565b50611c05565b6002836002811115611bf057611bf0611d24565b03611c055760078101611c0383826122aa565b505b6001805f828254611c169190612154565b90915550505050505050565b60025f5403611c4457604051633ee5aeb560e01b815260040160405180910390fd5b60025f55565b80356001600160a01b0381168114611c60575f5ffd5b919050565b5f60208284031215611c75575f5ffd5b611c7e82611c4a565b9392505050565b5f81518084528060208401602086015e5f602082860101526020601f19601f83011685010191505092915050565b608081525f611cc56080830187611c85565b6001600160a01b03861660208401528281036040840152611ce68186611c85565b915050821515606083015295945050505050565b5f5f60408385031215611d0b575f5ffd5b82359150611d1b60208401611c4a565b90509250929050565b634e487b7160e01b5f52602160045260245ffd5b61010081525f611d4c61010083018b611c85565b8281036020840152611d5e818b611c85565b90508281036040840152611d72818a611c85565b6001600160a01b038916606085015260808401889052905060038610611d9a57611d9a611d24565b8560a084015282810360c0840152611db28186611c85565b905082810360e0840152611dc68185611c85565b9b9a5050505050505050505050565b5f5f60408385031215611de6575f5ffd5b50508035926020909101359150565b634e487b7160e01b5f52604160045260245ffd5b5f82601f830112611e18575f5ffd5b813567ffffffffffffffff811115611e3257611e32611df5565b604051601f8201601f19908116603f0116810167ffffffffffffffff81118282101715611e6157611e61611df5565b604052818152838201602001851015611e78575f5ffd5b816020850160208301375f918101602001919091529392505050565b5f5f5f5f5f60a08688031215611ea8575f5ffd5b853594506020860135935060408601359250606086013567ffffffffffffffff811115611ed3575f5ffd5b611edf88828901611e09565b925050608086013567ffffffffffffffff811115611efb575f5ffd5b611f0788828901611e09565b9150509295509295909350565b608081525f611f266080830187611c85565b8281036020840152611f388187611c85565b6001600160a01b038616604085015291505060028310611f5a57611f5a611d24565b82606083015295945050505050565b5f60208284031215611f79575f5ffd5b5035919050565b5f5f5f60608486031215611f92575f5ffd5b833567ffffffffffffffff811115611fa8575f5ffd5b611fb486828701611e09565b935050611fc360208501611c4a565b9150604084013567ffffffffffffffff811115611fde575f5ffd5b611fea86828701611e09565b9150509250925092565b85815284602082015283604082015260a060608201525f61201860a0830185611c85565b828103608084015261202a8185611c85565b98975050505050505050565b5f5f5f60608486031215612048575f5ffd5b833567ffffffffffffffff81111561205e575f5ffd5b61206a86828701611e09565b935050602084013560028110611fc3575f5ffd5b5f5f5f5f60808587031215612091575f5ffd5b843567ffffffffffffffff8111156120a7575f5ffd5b6120b387828801611e09565b9450506120c260208601611c4a565b92506040850135600381106120d5575f5ffd5b9150606085013567ffffffffffffffff8111156120f0575f5ffd5b6120fc87828801611e09565b91505092959194509250565b600181811c9082168061211c57607f821691505b60208210810361213a57634e487b7160e01b5f52602260045260245ffd5b50919050565b634e487b7160e01b5f52601160045260245ffd5b8082018082111561189c5761189c612140565b5f815461217381612108565b80855260018216801561218d57600181146121a9576121dd565b60ff1983166020870152602082151560051b87010193506121dd565b845f5260205f205f5b838110156121d45781546020828a0101526001820191506020810190506121b2565b87016020019450505b50505092915050565b608081525f6121f86080830187612167565b828103602084015261220a8187612167565b604084019590955250506060015292915050565b8181038181111561189c5761189c612140565b604081525f6122436040830185612167565b82810360208401526122558185612167565b95945050505050565b601f8211156122a557805f5260205f20601f840160051c810160208510156122835750805b601f840160051c820191505b818110156122a2575f815560010161228f565b50505b505050565b815167ffffffffffffffff8111156122c4576122c4611df5565b6122d8816122d28454612108565b8461225e565b6020601f82116001811461230a575f83156122f35750848201515b5f19600385901b1c1916600184901b1784556122a2565b5f84815260208120601f198516915b828110156123395787850151825560209485019460019092019101612319565b508482101561235657868401515f19600387901b60f8161c191681555b50505050600190811b01905550565b5f6001820161237657612376612140565b5060010190565b606081525f61238f6060830186612167565b60208301949094525060400152919050565b5f5f83546123ae81612108565b6001821680156123c557600181146123da57612407565b60ff1983168652811515820286019350612407565b865f5260205f205f5b838110156123ff578154888201526001909101906020016123e3565b505081860193505b509195945050505050565b634e487b7160e01b5f52601260045260245ffd5b5f8261243457612434612412565b500690565b5f8261244757612447612412565b500490565b604081525f61245e6040830185611c85565b82810360208401526122558185611c8556fea264697066735822122002060280d5529f0679ca13ea3f65e3b7dd427e47f41eb9d687884af4891ddb4b64736f6c634300081c0033",
  "linkReferences": {},
  "deployedLinkReferences": {},
  "immutableReferences": {},
  "inputSourceName": "project/contracts/contract.sol",
  "buildInfoId": "solc-0_8_28-5b27c7b3ebe491cad855783fde13361a8a28a467"
}